:020000040800F2
:10000000680600208901000891010008930100089A
:100010009501000897010008990100080000000000
:100020000000000000000000000000009B0100082C
:100030009D010008000000009F010008A1010008C8
:10004000A3010008A3010008A3010008A301000800
:10005000A3010008A30100087D020008A301000815
:10006000A3010008A3010008A3010008A3010008E0
:10007000A3010008A3010008A3010008A3010008D0
:10008000A3010008A3010008A3010008A3010008C0
:10009000A3010008A3010008A3010008A3010008B0
:1000A000A3010008A3010008A3010008A3010008A0
:1000B000A3010008A3010008A3010008A301000890
:1000C000A3010008A3010008A3010008A301000880
:1000D000A3010008A3010008A3010008A301000870
:1000E000A3010008A3010008A301000800F002F822
:1000F00000F03AF80AA090E8000C82448344AAF188
:100100000107DA4501D100F02FF8AFF2090EBAE885
:100110000F0013F0010F18BFFB1A43F0010318473B
:10012000F804000018050000103A24BF78C878C110
:10013000FAD8520724BF30C830C144BF04680C60ED
:10014000704700000023002400250026103A28BF35
:1001500078C1FBD8520728BF30C148BF0B60704739
:100160001FB51FBD10B510BD00F031F81146FFF7E7
:10017000F7FF00F0E1F900F04FF803B4FFF7F2FFEA
:1001800003BC00F057F800000948804709480047C1
:10019000FEE7FEE7FEE7FEE7FEE7FEE7FEE7FEE737
:1001A000FEE7FEE704480549054A064B7047000094
:1001B000D5030008ED000008680000206806002054
:1001C000680200206802002070477047704775463B
:1001D00000F02CF8AE4605006946534620F00700B3
:1001E000854618B020B5FFF7DDFFBDE820404FF091
:1001F00000064FF000074FF000084FF0000B21F011
:100200000701AC46ACE8C009ACE8C009ACE8C009DD
:10021000ACE8C0098D46704710B50446AFF30080C6
:100220002046BDE81040FFF7A8BF00000048704717
:100230000400002001491820ABBEFEE726000200A2
:100240007047000007484FF0E021486100208861B6
:1002500000BF4FF0E020006900F480300028F8D0A3
:10026000704700003F19010000B5024602E0FFF7A9
:10027000E9FF521E002AFAD100BD000008480068BC
:1002800040F00100064908600648006818B10020E7
:100290000449086002E0012002490860704700003C
:1002A000140401400000002070B502460B460224F1
:1002B000012A03D10A4D05EB84010AE0022A03D189
:1002C000084D05EB840104E0032A02D1064D05EB3D
:1002D00084010D6801269E40354025FA03F070BD6B
:1002E00000080140000C01400010014010B500F072
:1002F00001F810BD0CB50020019000903348006853
:1003000040F480303149086000BF3048006800F494
:10031000003000900198401C0190009818B9019895
:10032000B0F5A06FF1D12948006800F4003010B199
:100330000120009001E0002000900098012843D1A6
:100340002348006840F01000214908600846006812
:1003500020F0030008600846006840F002000860D2
:100360001A4840681949486008464068486008468D
:10037000406840F4806048600846406820F47C1083
:1003800048600846406840F4E81048600846006845
:1003900040F08070086000BF0C48006800F00070FA
:1003A0000028F9D00948406820F003000749486058
:1003B0000846406840F00200486000BF03484068BB
:1003C00000F00C000828F9D10CBD0000001002401C
:1003D0000020024010B51348006840F001001149A8
:1003E000086008464068104908400E4948600846C1
:1003F00000680E4908400B4908600846006820F470
:10040000802008600846406820F4FE0048604FF4F1
:100410001F008860FFF76AFF4FF000600449086022
:1004200010BD0000001002400000FFF8FFFFF6FEC4
:1004300008ED00E070B503460324012B03D10E4DF7
:1004400005EB84000AE0022B03D10C4D05EB840080
:1004500004E0032B02D10A4D05EB84002AB10568A4
:1004600002FA01F63543056004E0056801268E4076
:10047000B543056070BD000000080140000C01405C
:10048000001001402DE9F04104460D46164629466C
:100490000022072D03DDA1F10807B9B20122012CCA
:1004A0000BD1214FBF6947F00407DFF87CC0CCF8BF
:1004B00018701E4F07EB82001AE0022C0BD11A4F66
:1004C000BF6947F00807DFF860C0CCF81870184F14
:1004D00007EB82000CE0032C0AD1134FBF6947F0F1
:1004E0001007DFF844C0CCF81870124F07EB8200F9
:1004F00007684FEA81084FF00F0C0CFA08FC27EA56
:100500000C0707608F0006FA07F74FF0020C0CEBA0
:10051000810C03FA0CFC47EA0C07D0F800C047EA4C
:100520000C070760BDE8F0810010024000080140A0
:10053000000C01400010014002230022114601205E
:10054000FFF7A0FF002303220D211046FFF79AFFBB
:10055000002303220C210120FFF794FF72B6002034
:10056000204988602048006840F001001E4908606A
:100570001D480830006840F001001B490831086040
:10058000062000280DDB00BF00BF00F01F02012184
:1005900091404209920002F1E022C2F8001100BF2E
:1005A00000BF00BF62B61BE01048008882B20C2179
:1005B0000120FFF73FFF0D48006860B14FF47A70EB
:1005C000FFF752FE0D21032000F012F84FF47A706D
:1005D000FFF74AFE04E001220D211046FFF72AFF33
:1005E000E2E700000000014000040140000000209C
:1005F00030B504460D4629462046FFF755FE28B182
:10060000002229462046FFF715FF04E00122294673
:100610002046FFF70FFF30BD38060008000000201D
:1006200004000000280100083C0600080400002027
:0C06300064060000440100080000000007
:04000005080000ED02
:00000001FF
